:100000000FC004C127C074C225C024C023C022C0B1
:1000100021C092C248C21EC01DC01CC01BC0C50268
:1000200011241FBECFE5D2E0DEBFCDBF20E0A0E6A9
:10003000B0E001C01D92A639B207E1F710E0C0E1BF
:10004000D0E003C02197FE01F9D6CF30D107D1F718
:1000500087D2FAC6D5CFEBE8F0E010821182128287
:10006000138214820895CF93C82F809194008F5FDC
:10007000809394008091940065E08BD690939400D7
:10008000E0919400F0E0E557FF4F808140918600B9
:100090005091870060918800709189002C2F30E08A
:1000A000F901E81BF109CF01092E000CAA0BBB0BCB
:1000B000840F951FA61FB71F80938600909387001B
:1000C000A0938800B09389006091860070918700AA
:1000D000809188009091890025E030E040E050E078
:1000E0008BD620938A00E0919400F0E0E557FF4F13
:1000F000C083CF9108958F929F92AF92BF92CF927B
:10010000DF92EF92FF920F931F93CF93DF93E9015A
:100110004617570720F47B01E41AF50A03C07A0159
:10012000E61AF70A0C171D0728F49E01201B310B55
:10013000890102C00C1B1D0BE114F10409F458C025
:100140000115110509F454C09C01261B370B4AF513
:10015000681B790B80E090E023D54B015C01B7016F
:1001600080E090E01DD59B01AC01C501B40184D4B1
:100170006B017C01B80180E090E012D59B01AC01DD
:10018000C701B6019BD56B017C01BE0180E090E008
:1001900007D59B01AC01C701B6010AD4D5D4EB0148
:1001A00027C0B90180E090E0FBD44B015C01B701AE
:1001B00080E090E0F5D49B01AC01C501B4015CD4B2
:1001C0006B017C01B80180E090E0EAD49B01AC01B6
:1001D000C701B60173D56B017C01BE0180E090E0E0
:1001E000DFD49B01AC01C701B601E2D3ADD4EB0172
:1001F000CE01DF91CF911F910F91FF90EF90DF9093
:10020000CF90BF90AF909F908F9008951F920F92C4
:100210000FB60F9211242F933F934F935F936F93D9
:100220007F938F939F93AF93BF93EF93FF938091AF
:100230009500811117C0B29B0BC081E080937A00BA
:100240001092790060E870E08BE790E059D30AC023
:1002500081E08093790010927A0060E870E08BE78B
:1002600090E04ED3B2990AC0809195008F5F809341
:10027000950080919500817080939500FF91EF919A
:10028000BF91AF919F918F917F916F915F914F91AE
:100290003F912F910F900FBE0F901F901895CF9305
:1002A000DF93CDB7DEB72A970FB6F894DEBF0FBE47
:1002B000CDBF8091950081110DC080917A00882377
:1002C00049F06BE770E084E790E007D310927A0082
:1002D0001092790080919500813009F0BEC0809124
:1002E0007900882309F4B9C01092790010927A003D
:1002F0006BE770E08FE690E0F0D26FE670E084E7A5
:1003000090E011D32E833F83488759876A87BE01C7
:100310006A5F7F4F80E690E03CD265E670E080E661
:1003200090E04AD229833A834B835C836D83BE017C
:100330006F5F7F4F8AE690E02CD2EAE6F0E08281A0
:1003400090E09C01220F331F22953295307F322797
:10035000207F3227281B390B220F331F220F331F18
:10036000820F931F880F991F880F991F880F991F5D
:1003700020813181820F931FA0E0B0E08093900034
:1003800090939100A0939200B093930060E670E088
:1003900085E690E0FED18091900090919100A0912F
:1003A0009200B09193000797A105B10508F447C0EA
:1003B0008091900090919100A0919200B091930053
:1003C00088379105A105B10580F139C086E090E03C
:1003D000A0E0B0E08093900090939100A0939200F1
:1003E000B09393008091900090919100A091920021
:1003F000B091930089379105A105B10560F088E7B8
:1004000090E0A0E0B0E08093900090939100A093E2
:100410009200B09393008091900090919100A091F0
:100420009200B09193001FDE18C0809190009091CF
:100430009100A0919200B091930015DE0EC08091C2
:10044000900090919100A0919200B0919300069736
:10045000A105B10508F4BACFC5CF2A960FB6F89416
:10046000DEBF0FBECDBFDF91CF9108958AB5826008
:100470008ABD83B7836083BF89B7806189BF8DE7F9
:1004800089BD109281001092800012BE089517BCA1
:1004900086E080BF1FBC89B7806689BF8AEF8EBDAA
:1004A00084E18BBD08951F920F920FB60F92112415
:1004B0002F933F934F935F936F937F938F939F936C
:1004C000AF93BF93EF93FF9380E890E0CDD0FF917F
:1004D000EF91BF91AF919F918F917F916F915F91BC
:1004E0004F913F912F910F900FBE0F901F90189535
:1004F0001F920F920FB60F9211248F938091850057
:10050000882321F0809185008F3F41F48091850000
:10051000C19889B78F7D89BF1FBC08C0C19A89B7B0
:10052000806289BF809185008BBD1FBC8F910F9029
:100530000FBE0F901F9018951F920F920FB60F923B
:100540001124C1980F900FBE0F901F90189581E055
:1005500085BF8BB780648BBFBA98B99AC19808954C
:10056000F6DF79DD83DF93DF789499DE80918A006E
:100570000AEF10E020E030E046E050E068E770E08D
:1005800090E0B9DD80938500F0CF80E890E013D053
:100590008BE790E010D084E790E00DD08FE690E0FC
:1005A0000AD08AE690E007D085E690E004D080E6A5
:1005B00090E001D00895FC01118210821282138212
:1005C00014820895CF93DF9300D000D01F92CDB74F
:1005D000DEB7FC0129833A834B835C836D832081E2
:1005E000318189819A81820F931F918380838081D9
:1005F0009181883E934080F18081918168EE73E023
:10060000D4D39183808382818F5F82839281842F70
:10061000890F828382818C33F8F082816CE3B9D3B5
:10062000928382818F5F828393818C81890F838300
:1006300083818C3388F08381ACD3938383818F5FF4
:10064000838394818D81890F84838481883120F014
:10065000848168E19ED394830F900F900F900F9048
:100660000F90DF91CF910895CF93DF9300D000D00A
:100670001F92CDB7DEB731E0232F30E040E050E0ED
:1006800060E0A0DF0F900F900F900F900F90DF9120
:10069000CF910895DF92EF92FF920F931F93CF9324
:1006A000DF9300D000D01F92CDB7DEB77C01162FAC
:1006B000DC0112968C911297E62FF0E01396DC90F5
:1006C000139714960C9165D3482F292F30E0C90158
:1006D000880F991F82959295907F9827807F982701
:1006E000821B930B880F991F880F991F820F931FEE
:1006F000880F991F880F991F880F991FBF0169D311
:100700009B01D7018D919C91BF014FD3260F371FBD
:100710003A8329838D2D612F3CD3382F692F70E0C8
:10072000CB0182959295907F9827807F9827861B92
:10073000970B880F991F880F991FBF014AD3460F47
:10074000802F612F26D3182FA92FB0E0CD018295DD
:100750009295907F9827807F98278A1B9B0B880F04
:10076000991F880F991FBF0134D3532F560F3A8119
:10077000612F70E080E090E00F900F900F900F904D
:100780000F90DF91CF911F910F91FF90EF90DF902D
:100790000895FC01DB018D919C91119791838083D9
:1007A00012968C911297828313968C911397838360
:1007B00014968C9184830895CF93DF9300D000D05A
:1007C0001F92CDB7DEB7DC01FB012D913C91119753
:1007D00080819181281B390B12964C91129782814E
:1007E000481B13965C9113978381581B14966C9148
:1007F0008481681B33231CF428513C4F415044230F
:1008000014F4445C5150552314F4545C6150662335
:100810000CF4685E3A8329833A8170E080E090E0CE
:100820000F900F900F900F900F90DF91CF91089540
:100830000F931F93CF93DF9300D000D01F92CDB7BB
:10084000DEB78C01FB01DC012D913C91808191810F
:10085000280F391F293EB3E03B0738F0C90168EE85
:1008600073E0A3D29C0181E001C080E0D801129620
:100870004C919281490F480F4D3330F0842F6CE337
:1008800088D2492F81E001C080E0D80113965C91A5
:100890009381590F580F5D3330F0852F6CE379D277
:1008A000592F91E001C090E0D80114966C91848199
:1008B000860F890F3A83298368E16BD23A81692FC9
:1008C00070E080E090E00F900F900F900F900F90ED
:1008D000DF91CF911F910F910895FC01DB018D9164
:1008E0009C9111979183808312968C9112978283A9
:1008F00013968C911397838314968C918483089517
:10090000FC01DB018D919C9111979183808312965C
:100910008C911297828313968C91139783831496EC
:100920008C9184830895CF93DF93CDB7DEB764971E
:100930000FB6F894DEBF0FBECDBF198A188A1A8A87
:100940001B8A1C8A75DF2B873C874D875E876F87E4
:10095000BE01655F7F4FCE0140961BDF62E0CE0196
:10096000409698DE2E833F83488759876A87BE0169
:100970006A5F7F4FCE0140960CDF85E0FE017096E6
:10098000DE01119601900D928A95E1F729813A8155
:100990004B815C816D8170E080E090E064960FB6E1
:1009A000F894DEBF0FBECDBFDF91CF9108955058B0
:1009B000BB27AA270ED048C139D130F03ED120F054
:1009C00031F49F3F11F41EF42EC10EF4E095E7FBC5
:1009D00024C1E92F4AD180F3BA176207730784074D
:1009E000950718F071F49EF562C10EF4E0950B2E98
:1009F000BA2FA02D0B01B90190010C01CA01A00171
:100A00001124FF27591B99F0593F50F4503E68F1CB
:100A10001A16F040A22F232F342F4427585FF3CF0C
:100A2000469537952795A795F0405395C9F77EF4DD
:100A30001F16BA0B620B730B840BBAF09150A1F026
:100A4000FF0FBB1F661F771F881FC2F70EC0BA0FAC
:100A5000621F731F841F48F4879577956795B79534
:100A6000F7959E3F08F0B3CF9395880F08F099272C
:100A7000EE0F9795879508950CD0E6C0DED040F034
:100A8000D5D030F021F45F3F19F0C7C0511110C12B
:100A9000CAC0EBD098F39923C9F35523B1F3951B42
:100AA000550BBB27AA2762177307840738F09F5F8F
:100AB0005F4F220F331F441FAA1FA9F333D00E2EFE
:100AC0003AF0E0E830D091505040E695001CCAF76B
:100AD00029D0FE2F27D0660F771F881FBB1F261730
:100AE00037074807AB07B0E809F0BB0B802DBF0103
:100AF000FF2793585F4F2AF09E3F510568F08DC045
:100B0000D7C05F3FECF3983EDCF386957795679509
:100B1000B795F7959F5FC9F7880F911D96958795B3
:100B200097F90895E1E0660F771F881FBB1F6217D2
:100B300073078407BA0720F0621B730B840BBA0B90
:100B4000EE1F88F7E095089598D088F09F5790F0B1
:100B5000B92F9927B751A0F0D1F0660F771F881FE2
:100B6000991F1AF0BA95C9F712C0B13081F09FD021
:100B7000B1E008959CC0672F782F8827B85F39F0BF
:100B8000B93FCCF3869577956795B395D9F73EF441
:100B900090958095709561957F4F8F4F9F4F0895E9
:100BA000E89409C097FB3EF4909580957095619507
:100BB0007F4F8F4F9F4F9923A9F0F92F96E9BB27BD
:100BC0009395F695879577956795B795F111F8CF39
:100BD000FAF4BB0F11F460FF1BC06F5F7F4F8F4FA4
:100BE0009F4F16C0882311F096E911C0772321F09A
:100BF0009EE8872F762F05C0662371F096E8862F32
:100C000070E060E02AF09A95660F771F881FDAF788
:100C1000880F9695879597F9089597F99F6780E8CB
:100C200070E060E008959FEF80EC089500240A943E
:100C30001616170618060906089500240A941216B7
:100C40001306140605060895092E0394000C11F4EA
:100C5000882352F0BB0F40F4BF2B11F460FF04C097
:100C60006F5F7F4F8F4F9F4F089557FD9058440FF0
:100C7000551F59F05F3F71F04795880F97FB991FFB
:100C800061F09F3F79F087950895121613061406B8
:100C9000551FF2CF4695F1DF08C016161706180645
:100CA000991FF1CF86957105610508940895E89420
:100CB000BB2766277727CB0197F908950AD0C4CFC1
:100CC000B5DF28F0BADF18F0952309F0A6CFABCF37
:100CD000EFCFCBDFA8F39923D9F35523C9F3950FB1
:100CE00050E0551FAA27EE27FF27BB2700240894B2
:100CF000679520F4E20FF31FB41F0A1E220F331F63
:100D0000441FAA1F6695A9F7779530F4F30FB41F17
:100D10000A1E121E08F46395330F441FAA1F221FD8
:100D2000769599F7879520F4B40F0A1E121E631F5B
:100D3000440FAA1F221F331F8695A9F7862F712DF6
:100D4000602D11249F5750408AF0E1F088234AF02B
:100D5000EE0FFF1FBB1F661F771F881F915050406B
:100D6000A9F79E3F510570F058CFA2CF5F3FECF33B
:100D7000983EDCF3869577956795B795F795E79557
:100D80009F5FC1F7FE2B880F911D9695879597F968
:100D90000895991B79E004C0991F961708F0961BD7
:100DA000881F7A95C9F780950895AA1BBB1B51E14E
:100DB00007C0AA1FBB1FA617B70710F0A61BB70BCB
:100DC000881F991F5A95A9F780959095BC01CD0170
:100DD000089597FB072E16F4009406D077FD08D0EF
:100DE000E4DF07FC05D03EF4909581959F4F089570
:100DF000709561957F4F0895A1E21A2EAA1BBB1B27
:100E0000FD010DC0AA1FBB1FEE1FFF1FA217B307D6
:100E1000E407F50720F0A21BB30BE40BF50B661FEC
:100E2000771F881F991F1A9469F7609570958095B0
:100E300090959B01AC01BD01CF010895EE0FFF1FFE
:0C0E40000590F491E02D0994F894FFCF88
:00000001FF
