:100000000FC0DAC027C070C125C024C023C022C0E1
:1000100021C0A0C134C11EC01DC01CC01BC0F9013D
:1000200011241FBECFE5D2E0DEBFCDBF20E0A0E6A9
:10003000B0E001C01D92A537B207E1F710E0C0E1C2
:10004000D0E003C02197FE01A5D2CF30D107D1F770
:100050009BD1A6C2D5CF10926F0010927000109263
:100060007100109272000895EF92FF920F931F9308
:10007000909174009F5F909374009091740010921F
:10008000740090E0A0E0B0E0E0917400F0E0EE0FCA
:10009000FF1FEE0FFF1FE159FF4F40815181628129
:1000A000738120916D007C018D01E41AF50A060B25
:1000B000170BB801A701420F40936D0020916D000E
:1000C00020936E00E0917400F0E0EE0FFF1FEE0F42
:1000D000FF1FE159FF4F80839183A283B3831F9158
:1000E0000F91FF90EF9008954617570738F0641767
:1000F0007507A0F4362F272FBA0102C0342F252F01
:100100006817790758F0009739F0632F722F681736
:10011000790720F4BC0102C060E070E0CB010895D3
:10012000CF92DF92EF92FF920F931F93CF93DF93C3
:100130007B01E9014617570720F46B01C41AD50A61
:1001400003C06A01C61AD70A0C171D0728F49E01BE
:10015000201B310B890102C00C1B1D0BC114D104E3
:1001600009F101151105F1F0B701BEDF9C01C801CD
:10017000B601BED1672B21F4C601B801B9D102C0C6
:1001800060E070E02E153F0538F4C701821B930B29
:10019000AFD1C60FD71F06C0C9018E199F09A8D1BC
:1001A000C60FD71FCE01DF91CF911F910F91FF9006
:1001B000EF90DF90CF9008951F920F920FB60F929D
:1001C00011248F939F938091610081111BC086B38E
:1001D000847080936300909163008091620098170F
:1001E00089F080916300843049F48091650090919A
:1001F000660001969093660080936500809163008D
:10020000809362009F918F910F900FBE0F901F906F
:10021000189581E08093610080916500909166005F
:10022000892B49F0609165007091660084EF91E040
:100230005FD1609373001092660010926500109277
:10024000610008958AB582608ABD83B7836083BFE9
:1002500089B7806189BF8DE789BD109268001092CF
:10026000670012BE089517BC86E080BF1FBC89B727
:10027000806689BF8AEF8EBD84E18BBD08951F9291
:100280000F920FB60F9211242F933F934F935F93CA
:100290006F937F938F939F93AF93BF93EF93FF934E
:1002A00087E690E003D180916700909168008A3FD3
:1002B000910548F0109268001092670080916400E8
:1002C0008F5F80936400FF91EF91BF91AF919F91F9
:1002D0008F917F916F915F914F913F912F910F90EF
:1002E0000FBE0F901F9018951F920F920FB60F928E
:1002F00011246F937F938F939F9380916C00882339
:1003000079F080916C00803F80F00AC081E080939A
:100310006000C19A03C010926000C1981FBC11C058
:1003200080916C00803F90F7F6CF10926000C19AE8
:1003300089B7806289BF80916C006EB5CDD09BBDBE
:100340001FBC9F918F917F916F910F900FBE0F9067
:100350001F9018951F920F920FB60F9211248F9332
:1003600080916000811101C0C1988F910F900FBEE4
:100370000F901F90189581E085BF8BB780648BBF6D
:10038000BA98B99AC1980895F894F5DF64DE5ADFF7
:100390006ADF7894D0E0C0E00F2EF0E6CF2EFAEEC0
:1003A000DF2EE12CF12CF02D80916400882331F0B8
:1003B00030DF8091730058DE1092640020916E004F
:1003C000222349F030E040E050E0C701B601A4D05C
:1003D000822F932F02C08D2F9C2F00EF10E02D2F26
:1003E0003C2F48E253E264EF71E09ADE80936C00A8
:1003F000DBCF87E690E001D00895FC0111821082E6
:100400001282138214820895CF93DF9300D000D01C
:100410001F92CDB7DEB7FC0129833A834B835C83FF
:100420006D832081318189819A81820F931F91830D
:10043000808380819181883E934080F18081918189
:1004400068EE73E055D09183808382818F5F8283D1
:100450009281842F890F828382818C33F8F082818C
:100460006CE33AD0928382818F5F828393818C8107
:10047000890F838383818C3388F083812DD093838C
:1004800083818F5F838394818D81890F84838481AD
:10049000883120F0848168E11FD094830F900F9001
:1004A0000F900F900F90DF91CF910895CF93DF932E
:1004B00000D000D01F92CDB7DEB731E0232F30E05F
:1004C00040E050E060E0A0DF0F900F900F900F90A1
:1004D0000F90DF91CF910895991B79E004C0991F87
:1004E000961708F0961B881F7A95C9F7809508958E
:1004F000AA1BBB1B51E107C0AA1FBB1FA617B7074A
:1005000010F0A61BB70B881F991F5A95A9F7809565
:100510009095BC01CD010895052E97FB16F400942B
:100520000FD057FD05D014D007FC02D046F408C008
:1005300050954095309521953F4F4F4F5F4F08950F
:1005400090958095709561957F4F8F4F9F4F08953F
:10055000A1E21A2EAA1BBB1BFD010DC0AA1FBB1FC7
:10056000EE1FFF1FA217B307E407F50720F0A21B39
:10057000B30BE40BF50B661F771F881F991F1A94A6
:1005800069F760957095809590959B01AC01BD01D0
:10059000CF010895EE0FFF1F0590F491E02D09940F
:0405A000F894FFCFFD
:00000001FF
