:100000000FC0C1C132C0F1C230C02FC02EC02DC040
:100010002CC052C3A8C229C028C027C026C00404CF
:1000200011241FBECFE5D2E0DEBFCDBF10E0A0E6B9
:10003000B0E0EEE7FBE002C005900D92A036B107FC
:10004000D9F720E0A0E6B0E001C01D92A437B207C6
:10005000E1F710E0C0E1D0E003C02197FE0187D5B1
:10006000CF30D107D1F781D388C5CACFCF93DF93E3
:100070001F92CDB7DEB7198219828981882391F446
:100080008981882F90E0880F991F880F991F8E59BA
:100090009F4FFC01108211821282138289818F5F2F
:1000A0008983EBCF00000F90DF91CF910895EF92FD
:1000B000FF920F931F93CF93DF931F92CDB7DEB7BD
:1000C0008983809160008F5F8093600080916000E1
:1000D000109260008981282F30E040E050E080914C
:1000E0006000882F90E0880F991F880F991F8E5904
:1000F0009F4FFC0180819181A281B38179018A01A6
:10010000E81AF90A0A0B1B0BD801C701982F809136
:100110006700890F80936700809167008093660075
:1001200080916000282F30E08981882F90E0A0E046
:10013000B0E0220F331F220F331F2E593F4FF9011A
:1001400080839183A283B38300000F90DF91CF91CE
:100150001F910F91FF90EF900895CF93DF93CDB74C
:10016000DEB72A970FB6F894DEBF0FBECDBF9E83D1
:100170008D8378876F835A8749871A8219821C82F8
:100180001B822F81388589859A858217930748F4C9
:100190008F8198859A83898389859A859C838B83AF
:1001A00008C089859A859A8389838F8198859C83E5
:1001B0008B832D813E8189819A818217930728F450
:1001C00089819A819E838D830BC02D813E818B8195
:1001D0009C812817390720F48B819C819E838D8315
:1001E0008D819E812A960FB6F894DEBF0FBECDBFDB
:1001F000DF91CF9108950F931F93CF93DF93CDB7E6
:10020000DEB762970FB6F894DEBF0FBECDBF9A87F8
:1002100089877C876B875E874D87388B2F871A8B02
:10022000098B1A8219821C821B821E821D821886EB
:100230001F822B853C858D859E858217930758F4F8
:100240002B853C858D859E85A901481B590BCA01CC
:100250009C838B830AC02D853E858B859C85A90157
:10026000481B590BCA019C838B832F853889898948
:100270009A898217930758F42F85388989899A8932
:10028000A901481B590BCA019E838D830AC0298985
:100290003A898F859889A901481B590BCA019E8309
:1002A0008D838B819C81892B21F08D819E81892B6F
:1002B00029F48F8598899A8389834FC04D855E85FF
:1002C0002B853C8589859A85B90147DF9A8789877F
:1002D0008D819E812B813C81B901F7D3CB01892B84
:1002E00049F48B819C812D813E81B901EED3CB01F4
:1002F00098878F8329853A858B859C85A901481B22
:10030000590BCA019923ACF42B853C8589859A85C4
:10031000A901481B590BCA012F813885B901D5D3D2
:10032000CB019C018F859889820F931F9A838983C3
:1003300014C029853A858B859C85A901481B590BDA
:10034000CA012F813885B901C0D3CB019C018F85AB
:100350009889820F931F9A83898389819A8140EFBC
:1003600050E060E070E0F9DE9A83898389819A81A8
:1003700062960FB6F894DEBF0FBECDBFDF91CF916E
:100380001F910F9108951F920F9200905F000F929E
:1003900011242F938F939F93EF93FF93CF93DF932A
:1003A000CDB7DEB79091730081E0992309F080E02A
:1003B000882331F186E390E0FC0180818470809392
:1003C0007100209171009091720081E0291709F469
:1003D00080E08823A9F09091710081E0943009F0C9
:1003E00080E0882349F080916E0090916F00019623
:1003F00090936F0080936E008091710080937200E3
:100400000000DF91CF91FF91EF919F918F912F91FC
:100410000F9000925F000F901F901895CF93DF937D
:10042000CDB7DEB781E08093730080916E0090912C
:100430006F0021E0892B09F420E0222359F020915C
:100440006E0030916F0084EF91E0B9013ED3CB0193
:100450008093610010926F0010926E0010927300F2
:100460000000DF91CF910895CF93DF9300D000D0AB
:10047000CDB7DEB79C838B831A8219828B819C81D6
:10048000892B81F08B819C819C0140E050E080E6CB
:100490009AEEA0E0B0E0BC01CD012BD3DA01C90196
:1004A0009A83898389819A810F900F900F900F9082
:1004B000DF91CF910895CF93DF93CDB7DEB78AE474
:1004C00090E02AE430E0F90120812260FC012083E1
:1004D00083E590E023E530E0F90120812360FC0111
:1004E000208389E590E029E530E0F9012081206151
:1004F000FC01208389E490E02DE7FC012083109229
:100500006A001092690082E590E0FC011082000010
:10051000DF91CF910895CF93DF93CDB7DEB787E416
:1005200090E0FC01108280E590E026E0FC01208351
:100530008FE490E0FC01108289E590E029E530E04D
:10054000F90120812066FC0120838EE490E02AEFEF
:10055000FC0120838BE490E024E1FC012083000077
:10056000DF91CF9108951F920F9200905F000F923C
:1005700011242F933F934F935F936F937F938F93A8
:100580009F93AF93BF93EF93FF93CF93DF93CDB739
:10059000DEB789E690E065D28091690090916A00AB
:1005A00021E08A3F910508F420E0222349F01092CF
:1005B0006A0010926900809170008F5F80937000D4
:1005C0000000DF91CF91FF91EF91BF91AF919F918B
:1005D0008F917F916F915F914F913F912F910F90EC
:1005E00000925F000F901F9018951F920F9200903D
:1005F0005F000F9211242F933F938F939F93EF935C
:10060000FF93CF93DF93CDB7DEB780916800882347
:1006100031F080916800803F10F481E001C080E0FB
:100620008823E9F088E390E028E330E0F9012081B5
:100630002260FC01208389E590E029E530E0F901A2
:1006400020812062FC0120838BE490E020916800EF
:10065000FC0120838FE490E0FC0110821FC0909188
:10066000680081E0913F08F480E0882351F088E33E
:1006700090E028E330E0F90120812260FC01208332
:1006800009C088E390E028E330E0F90120812D7F64
:10069000FC0120838FE490E0FC011082DF91CF9178
:1006A000FF91EF919F918F913F912F910F90009229
:1006B0005F000F901F9018951F920F9200905F009F
:1006C0000F9211242F933F938F939F93EF93FF9358
:1006D000CF93DF93CDB7DEB788E390E028E330E037
:1006E000F90120812D7FFC0120830000DF91CF9153
:1006F000FF91EF919F918F913F912F910F900092D9
:100700005F000F901F901895CF93DF93CDB7DEB7A2
:1007100085E590E021E0FC0120838BE590E02BE56E
:1007200030E0F90120812064FC01208387E390E020
:1007300027E330E0F90120812B7FFC01208387E350
:1007400090E027E330E0F90120812260FC01208362
:1007500088E390E028E330E0F90120812D7FFC015F
:1007600020830000DF91CF9108950F931F93CF93C3
:10077000DF9300D0CDB7DEB71A821982F894C4DFB8
:1007800075DC99DEC8DE78949091700081E0992341
:1007900009F480E0882331F041DE8091610087DC3C
:1007A0001092700080916600882F90E05DDE9A8341
:1007B000898389819A8100EF10E020E030E048E2EF
:1007C00053E264EF71E017DD80936800DDCFCF93D3
:1007D000DF9300D000D0CDB7DEB79A8389837C83C6
:1007E0006B8389819A81019739F48B819C81019671
:1007F00019F489E690E014D000000F900F900F904C
:100800000F90DF91CF910895CF93DF93CDB7DEB7EF
:100810006FEF7FEF81E090E0DADFDF91CF91089515
:10082000CF93DF9300D0CDB7DEB79A8389838981D8
:100830009A81FC011182108289819A81FC011282C5
:1008400089819A81FC01138289819A81FC01148239
:1008500000000F900F90DF91CF9108950F93CF93E9
:10086000DF93CDB7DEB727970FB6F894DEBF0FBE84
:10087000CDBF9A8389837C836B834D832E830F83C3
:1008800089819A812B813C81FC013183208389817C
:100890009A812D81FC01228389819A812E81FC011C
:1008A000238389819A812F81FC012483000027966C
:1008B0000FB6F894DEBF0FBECDBFDF91CF910F9181
:1008C0000895CF93DF93CDB7DEB727970FB6F8948F
:1008D000DEBF0FBECDBF9A8389832B833C834D83BC
:1008E0005E836F8389819A81FC01208131818B81B4
:1008F0009C81280F391F89819A81FC0131832083D3
:1009000089819A81FC018081918121E0883E934018
:1009100008F420E0222309F496C089819A81FC0121
:100920008081918128EE33E0B901CFD09C0189818B
:100930009A81FC013183208389819A81FC01828123
:1009400021E0280F89819A81FC01228389819A8183
:10095000FC0192818D81292F280F89819A81FC01C8
:10096000228389819A81FC01928181E09C3308F481
:1009700080E0882309F469C089819A81FC01828121
:100980009CE3692F96D0892F282F89819A81FC01B9
:10099000228389819A81FC01828121E0280F89814B
:1009A0009A81FC01228389819A81FC0193818E8145
:1009B000292F280F89819A81FC01238389819A81BB
:1009C000FC01938181E09C3308F480E0882309F4E2
:1009D0003EC089819A81FC0183819CE3692F69D0A3
:1009E000892F282F89819A81FC01238389819A810B
:1009F000FC01838121E0280F89819A81FC012383F6
:100A000089819A81FC0194818F81292F280F898106
:100A10009A81FC01248389819A81FC01948181E07F
:100A2000983108F480E0882399F089819A81FC014B
:100A3000848198E1692F3DD0892F282F89819A815F
:100A4000FC01248305C0000003C0000001C00000B9
:100A500027960FB6F894DEBF0FBECDBFDF91CF91C2
:100A600008950F93CF93DF93CDB7DEB727970FB6D7
:100A7000F894DEBF0FBECDBF9F838E8300E020E0E1
:100A800040E061E070E0CE010196E8DE8E819F815A
:100A900029813A814B815C816D8113DF00002796AB
:100AA0000FB6F894DEBF0FBECDBFDF91CF910F918F
:100AB0000895991B79E004C0991F961708F0961BBA
:100AC000881F7A95C9F780950895AA1BBB1B51E131
:100AD00007C0AA1FBB1FA617B70710F0A61BB70BAE
:100AE000881F991F5A95A9F780959095BC01CD0153
:100AF0000895052E97FB16F400940FD057FD05D0EE
:100B000014D007FC02D046F408C0509540953095AB
:100B100021953F4F4F4F5F4F089590958095709569
:100B200061957F4F8F4F9F4F0895A1E21A2EAA1B08
:100B3000BB1BFD010DC0AA1FBB1FEE1FFF1FA2178D
:100B4000B307E407F50720F0A21BB30BE40BF50B8A
:100B5000661F771F881F991F1A9469F76095709513
:100B6000809590959B01AC01BD01CF010895EE0FDA
:0E0B7000FF1F0590F491E02D0994F894FFCF3B
:00000001FF
