:100000000FC0FCC027C084C125C024C023C022C0AB
:1000100021C0A2C148C11EC01DC01CC01BC0E4013C
:1000200011241FBECFE5D2E0DEBFCDBF20E0A0E6A9
:10003000B0E001C01D92A937B207E1F710E0C0E1BE
:10004000D0E003C02197FE0147D4CF30D107D1F7CC
:1000500097D148C4D5CF109273000895CF92DF9204
:10006000EF92FF92909178009F5F9093780090912B
:10007000780010927800E0917800F0E0ED58FF4FA2
:100080009081C0906E00D0906F00E0907000F09072
:100090007100282F30E0A901491B5109052E000CE1
:1000A000660B770B4C0D5D1D6E1D7F1D40936E0022
:1000B00050936F00609370007093710040916E00D8
:1000C00050916F00609170007091710040937200C8
:1000D000E0917800F0E0ED58FF4F8083FF90EF90C3
:1000E000DF90CF9008958F929F92AF92BF92CF9260
:1000F000DF92EF92FF920F931F93CF93DF93E9016B
:100100004617570720F47B01E41AF50A03C07A0169
:10011000E61AF70A0C171D0728F49E01201B310B65
:10012000890102C00C1B1D0BE114F10409F458C035
:100130000115110509F454C09C01261B370B4AF523
:10014000681B790B80E090E0AED24B015C01B701F7
:1001500080E090E0A8D29B01AC01C501B4010FD2B0
:100160006B017C01B80180E090E09DD29B01AC0165
:10017000C701B60126D36B017C01BE0180E090E08F
:1001800092D29B01AC01C701B60195D160D2EB01BF
:1001900027C0B90180E090E086D24B015C01B70135
:1001A00080E090E080D29B01AC01C501B401E7D1B1
:1001B0006B017C01B80180E090E075D29B01AC013D
:1001C000C701B601FED26B017C01BE0180E090E068
:1001D0006AD29B01AC01C701B6016DD138D2EB01E7
:1001E000CE01DF91CF911F910F91FF90EF90DF90A3
:1001F000CF90BF90AF909F908F9008951F920F92D5
:100200000FB60F9211248F939F93B29B09C08091D8
:10021000610090916200019690936200809361006A
:100220009F918F910F900FBE0F901F901895809106
:10023000610090916200892BA1F060916100709142
:100240006200769567958AEF90E032D3CB01A0E00B
:10025000B0E08093740090937500A0937600B09303
:100260007700109262001092610008958AB5826052
:100270008ABD83B7836083BF89B7806189BF8DE7FB
:1002800089BD109269001092680012BE089517BCD3
:1002900086E080BF1FBC89B7806689BF8AEF8EBDAC
:1002A00084E18BBD08951F920F920FB60F92112417
:1002B0002F933F934F935F936F937F938F939F936E
:1002C000AF93BF93EF93FF9388E690E0DDD08091EA
:1002D0006800909169008B3F910548F01092690089
:1002E00010926800809160008F5F80936000FF91A2
:1002F000EF91BF91AF919F918F917F916F915F919E
:100300004F913F912F910F900FBE0F901F90189516
:100310001F920F920FB60F9211248F9380916D0050
:10032000882321F080916D008F3F41F480916D0012
:10033000C19889B78F7D89BF1FBC08C0C19A89B792
:10034000806289BF80916D008BBD1FBC8F910F9023
:100350000FBE0F901F9018951F920F920FB60F921D
:100360001124C1980F900FBE0F901F90189581E037
:1003700085BF8BB780648BBFBA98B99AC19808952E
:10038000F6DF69DE73DF83DF789480916000882375
:1003900061F04DDF8091740090917500A09176001E
:1003A000B09177005BDE10926000809172000AEFDE
:1003B00010E020E030E046E050E068E770E090E0D8
:1003C00092DE80936D00E1CF88E690E004D083E672
:1003D00090E001D00895FC011182108212821382F4
:1003E00014820895CF93DF9300D000D01F92CDB731
:1003F000DEB7FC0129833A834B835C836D832081C4
:10040000318189819A81820F931F918380838081BA
:100410009181883E934080F18081918168EE73E004
:1004200047D29183808382818F5F82839281842FE0
:10043000890F828382818C33F8F082816CE32CD225
:10044000928382818F5F828393818C81890F8383E2
:1004500083818C3388F083811FD2938383818F5F64
:10046000838394818D81890F84838481883120F0F6
:10047000848168E111D294830F900F900F900F90B8
:100480000F90DF91CF910895CF93DF9300D000D0EC
:100490001F92CDB7DEB731E0232F30E040E050E0CF
:1004A00060E0A0DF0F900F900F900F900F90DF9102
:1004B000CF9108955058BB27AA270ED048C139D1F3
:1004C00030F03ED120F031F49F3F11F41EF42EC1E4
:1004D0000EF4E095E7FB24C1E92F4AD180F3BA1767
:1004E000620773078407950718F071F49EF562C1DF
:1004F0000EF4E0950B2EBA2FA02D0B01B90190013F
:100500000C01CA01A0011124FF27591B99F0593F82
:1005100050F4503E68F11A16F040A22F232F342FCA
:100520004427585FF3CF469537952795A795F04018
:100530005395C9F77EF41F16BA0B620B730B840B2D
:10054000BAF09150A1F0FF0FBB1F661F771F881FE5
:10055000C2F70EC0BA0F621F731F841F48F487953D
:1005600077956795B795F7959E3F08F0B3CF93952C
:10057000880F08F09927EE0F9795879508950CD06E
:10058000E6C0DED040F0D5D030F021F45F3F19F066
:10059000C7C0511110C1CAC0EBD098F39923C9F359
:1005A0005523B1F3951B550BBB27AA276217730779
:1005B000840738F09F5F5F4F220F331F441FAA1F2D
:1005C000A9F333D00E2E3AF0E0E830D091505040ED
:1005D000E695001CCAF729D0FE2F27D0660F771F9B
:1005E000881FBB1F261737074807AB07B0E809F07D
:1005F000BB0B802DBF01FF2793585F4F2AF09E3F12
:10060000510568F08DC0D7C05F3FECF3983EDCF336
:10061000869577956795B795F7959F5FC9F7880F8A
:10062000911D9695879597F90895E1E0660F771FDC
:10063000881FBB1F621773078407BA0720F0621B6D
:10064000730B840BBA0BEE1F88F7E095089598D0D2
:1006500088F09F5790F0B92F9927B751A0F0D1F0AB
:10066000660F771F881F991F1AF0BA95C9F712C035
:10067000B13081F09FD0B1E008959CC0672F782FF2
:100680008827B85F39F0B93FCCF3869577956795A1
:10069000B395D9F73EF490958095709561957F4F0D
:1006A0008F4F9F4F0895E89409C097FB3EF49095B3
:1006B0008095709561957F4F8F4F9F4F9923A9F03B
:1006C000F92F96E9BB279395F695879577956795CA
:1006D000B795F111F8CFFAF4BB0F11F460FF1BC00E
:1006E0006F5F7F4F8F4F9F4F16C0882311F096E9A1
:1006F00011C0772321F09EE8872F762F05C066234F
:1007000071F096E8862F70E060E02AF09A95660F07
:10071000771F881FDAF7880F9695879597F90895C0
:1007200097F99F6780E870E060E008959FEF80ECA4
:10073000089500240A941616170618060906089547
:1007400000240A9412161306140605060895092EAD
:100750000394000C11F4882352F0BB0F40F4BF2B1C
:1007600011F460FF04C06F5F7F4F8F4F9F4F08955C
:1007700057FD9058440F551F59F05F3F71F0479552
:10078000880F97FB991F61F09F3F79F08795089537
:10079000121613061406551FF2CF4695F1DF08C056
:1007A000161617061806991FF1CF86957105610573
:1007B00008940895E894BB2766277727CB0197F91B
:1007C00008950AD0C4CFB5DF28F0BADF18F095231A
:1007D00009F0A6CFABCFEFCFCBDFA8F39923D9F3A6
:1007E0005523C9F3950F50E0551FAA27EE27FF2781
:1007F000BB2700240894679520F4E20FF31FB41F71
:100800000A1E220F331F441FAA1F6695A9F777956A
:1008100030F4F30FB41F0A1E121E08F46395330F51
:10082000441FAA1F221F769599F7879520F4B40FCD
:100830000A1E121E631F440FAA1F221F331F869514
:10084000A9F7862F712D602D11249F5750408AF0F3
:10085000E1F088234AF0EE0FFF1FBB1F661F771FD2
:10086000881F91505040A9F79E3F510570F058CF16
:10087000A2CF5F3FECF3983EDCF3869577956795C2
:10088000B795F795E7959F5FC1F7FE2B880F911DF0
:100890009695879597F90895991B79E004C0991F5B
:1008A000961708F0961B881F7A95C9F780950895CA
:1008B000AA1BBB1B51E107C0AA1FBB1FA617B70786
:1008C00010F0A61BB70B881F991F5A95A9F78095A2
:1008D0009095BC01CD010895EE0FFF1F0590F49196
:0808E000E02D0994F894FFCF0C
:00000001FF
